:100000000C9436000C945E000C945E000C945E0020
:100010000C945E000C945E000C945E000C945E00E8
:100020000C945E000C945E000C945E000C945E00D8
:100030000C945E000C945E000C945E000C945E00C8
:100040000C94EB050C945E000C94DE070C941008E5
:100050000C945E000C945E000C945E000C945E00A8
:100060000C945E000C945E005902400811241FBEDF
:10007000CFEFD8E0DEBFCDBF11E0A0E0B1E0E6EC0D
:10008000F8E102C005900D92AC37B107D9F724E032
:10009000ACE7B1E001C01D92A33FB207E1F710E069
:1000A000CCE6D0E004C02297FE010E94C30BC83604
:1000B000D107C9F70E9484080C94610C0C940000CD
:1000C00060EF70E08CE791E00E94A00240E251E016
:1000D00062E08CE791E00E94A60245E451E063E013
:1000E0008CE791E00E94A60248E051E060E08CE7D6
:1000F00091E00C94A602CF92DF92EF92FF920F93C1
:100100001F93CF93DF93EC016A017B010E943506B8
:10011000088119812A813B81601B710B820B930B33
:10012000C616D706E806F90640F40E94350668832D
:1001300079838A839B8381E001C080E0DF91CF9146
:100140001F910F91FF90EF90DF90CF9008959F92B5
:10015000AF92BF92CF92DF92EF92FF920F931F93D5
:10016000CF93DF93EC015A01922E888181112BC02D
:10017000CE010E94B20288818823A1F0FE01EC5AD0
:10018000FD4F60816E018FEAC81A8DEFD80AF60123
:10019000808191810E94D308B501F601808191810F
:1001A0000E94D1089701A801692DCE01DF91CF915E
:1001B0001F910F91FF90EF90DF90CF90BF90AF9085
:1001C0009F900C94C60480E0DF91CF911F910F9116
:1001D000FF90EF90DF90CF90BF90AF909F900895E9
:1001E000EF92FF920F931F9388E8E82E83E1F82E99
:1001F00001E010E020E04BE051E061E070E08CE7CE
:1002000091E00E94A7001F910F91FF90EF90089539
:10021000EF92FF920F931F9398E8E92E93E1F92E46
:1002200001E010E020E04DE251E060E070E08CE79A
:1002300091E00E94A7001F910F91FF90EF90089509
:10024000EF92FF920F931F930E94350660933C0438
:1002500070933D0480933E0490933F0481E080932B
:100260004C0428E8E22E23E1F22E01E010E020E029
:100270004BE351E060E070E08CE791E00E94A70062
:100280001F910F91FF90EF900895EF92FF920F93BF
:100290001F930E943506609338047093390480934D
:1002A0003A0490933B0410924C0438E8E32E33E177
:1002B000F32E01E010E020E049E451E060E070E05E
:1002C0008CE791E00E94A7001F910F91FF90EF90A3
:1002D0000895EF92FF920F931F9326E040E052ECB7
:1002E00061E070E086E594E00E947C0761E08CE7C5
:1002F00091E00E949D020E94600048E8E42E43E1E4
:10030000F42E01E010E020E046E551E060E070E00E
:100310008CE791E00E94A70080E00E947C061F917C
:100320000F91FF90EF900C94EA09CF92DF92EF9239
:10033000FF920F931F93CF93DF9300D000D0CDB7E0
:10034000DEB78C0149835A836B837C83FC018081F7
:100350008823C1F0EC5AFD4F6081339780819181F1
:100360000E94D308CE0101967C016E0195E0C90E72
:10037000D11CF70161917F01C8010E94C505EC14F1
:10038000FD04B9F70F900F900F900F90DF91CF9170
:100390001F910F91FF90EF90DF90CF900895CF9233
:1003A000DF92EF92FF920E943506C0903C04D090FD
:1003B0003D04E0903E04F0903F046C197D098E09E5
:1003C0009F090E94BF0A20E030E04AE754E40E94FF
:1003D000570A6B017C018EE00E947C06BC018827D5
:1003E00077FD8095982F0E94C10A6093480470930E
:1003F000490480934A0490934B0420E030E043E3A7
:1004000053E40E94F20920E030E048E152E40E9407
:10041000570A609344047093450480934604909374
:10042000470420E030E0A9010E94710B87FF08C05B
:10043000109244041092450410924604109247040E
:1004400064E070E08CE791E00E94B202B701A6017F
:100450008CE791E00E94950140914404509145043D
:1004600060914604709147048CE791E00E949501E9
:1004700028E833E141E050E060E08CE791E0FF9054
:10048000EF90DF90CF900C94C6048CE791E00E942F
:10049000B10344E650E060E070E080E494E00E9444
:1004A0007B00882329F080914C0481110C94CF01AA
:1004B00008950F930FE22BE34CE266E574E08CE7BE
:1004C00091E00E9498020F9108950F93FC01DC01C6
:1004D000AA5ABD4F11961C921E92159711967C93A5
:1004E0006E93108613964C9311972C9312960C933F
:1004F00080E483838FE384831282199711961C9280
:100500001E92129611961C921E92149781E08C9363
:1005100080E090E0DF01A80FB91FA85ABD4F1D92DF
:100520001C92029684369105A9F717820F910895BF
:100530000F930E9465020F910895FC016087089552
:100540008A5A9D4FFC01718360830895623348F499
:10055000FC01E60FF11DE60FF11DE85AFD4F518336
:1005600040830895FC01808181110BC081E080836C
:100570008783EF5AFD4F4AE050E0808191810C94CF
:1005800091090895F90121E03081341320E0DB0165
:100590003C913083DC01AB5ABD4F8C91381302C0C3
:1005A00021111082822F08956F927F928F929F92D5
:1005B000AF92BF92CF92DF92EF92FF920F931F9371
:1005C000CF93DF93EC017B011D828B013C0185E021
:1005D000680E711C5E01EBEAAE1AEDEFBE0A4E0129
:1005E000FCEA8F1AFDEF9F0A6801CE18DF0893011D
:1005F000F5014081B801CE010E94C202F80191913B
:100600008F01911102C0882331F0F40120819213EF
:10061000EBCF8111E9CFC601DF91CF911F910F91EF
:10062000FF90EF90DF90CF90BF90AF909F908F9012
:100630007F906F900895BF92CF92DF92EF92FF92DA
:100640000F931F93CF93DF936C01B42E7901611543
:10065000710519F4D9016D917C918B01E8014B2D45
:10066000B801C6010E94D402892B29F40F5F1F4FE5
:1006700088818111F3CF8881882391F04B2DBE01B1
:10068000C6010E94D402FE01E80FF91F8081882371
:1006900011F010823196D701ED93FC93CE0102C088
:1006A00080E090E0DF91CF911F910F91FF90EF904C
:1006B000DF90CF90BF9008950F931F93CF93DF9358
:1006C000FC01E75BFD4F2081222339F1213031F419
:1006D000BC01675F7F4F22E0208302C060E070E0D2
:1006E000EC01C65BDD4F28818C01045B1D4F22238A
:1006F00061F09C01225B3D4FFC01EC5AFD4F4081B3
:100700000E941B03F80191838083F801808191810D
:10071000892B19F081E0888301C080E0DF91CF91BF
:100720001F910F910895CF93DF93EC010E945C031A
:10073000FE01E55BFD4F882371F0DE01A65BBD4F36
:1007400081E08C938083C45BDD4F88819981DF9148
:10075000CF910C94330C108280E090E0DF91CF9128
:1007600008952F923F924F925F926F927F928F9255
:100770009F92AF92BF92CF92DF92EF92FF920F9330
:100780001F93CF93DF93CDB7DEB72B970FB6F894B7
:10079000DEBF0FBECDBF8C017C012FEAE21A2DEF28
:1007A000F20A5C0187EBA81A8DEFB80AD801AB5AA0
:1007B000BD4FBD83AC83F801ED5AFD4FFF83EE833F
:1007C000C8018A5A9D4F998788871A97BB87AA873D
:1007D000F80187818111C1C0D7018D919C91DC0105
:1007E000ED91FC910480F581E02D0995892B09F4A8
:1007F000B4C0F70180819181DC01ED91FC9104800E
:10080000F581E02D0995811592400CF0A2C0F70109
:1008100080819181DC01ED91FC910480F581E02DD6
:1008200009954C01A401B801675B7F4FF7018081F6
:1008300091810E94C70968011401200E311EC80170
:1008400006969B838A83280194EB491A9DEF590AE7
:100850004801A2EB8A1AADEF9A0A3801B6EB6B1A7F
:10086000BDEF7B0AC214D30409F4B2CFF601E75BF3
:10087000FF4F80818983F50110822A813B81AC8101
:10088000BD814C91BE016F5F7F4FC8010E94C202C3
:100890002981EE81FF813081D80112969C911297B7
:1008A000F801E90FF11D231316C0811114C0118640
:1008B000992329F021E0F501208316961C92F80176
:1008C0001282D2011D921C92F40111821082E1E089
:1008D000D301EC9316C021879F5FD80112969C9399
:1008E000129714968C911497981758F012961C92A0
:1008F000F20111821082D4011D921C9221E0F301B9
:100900002083D5018C91813001F5C8010E949303A9
:10091000F8018183823390F4AA85BB852C91222330
:1009200069F0FC01FF27E45DFE4FEE0FFF1FE00FB3
:10093000F11F0190F081E02D309731F4A885B98541
:10094000ED91FC91309709F00995BFEFCB1ADB0AC6
:1009500089CF812C82E0982E65CF2B960FB6F89424
:10096000DEBF0FBECDBFDF91CF911F910F91FF90E2
:10097000EF90DF90CF90BF90AF909F908F907F903F
:100980006F905F904F903F902F9008952F923F92DD
:100990004F925F926F927F928F929F92AF92BF928F
:1009A000CF92DF92EF92FF920F931F93CF93DF933B
:1009B000CDB7DEB765970FB6F894DEBF0FBECDBFDB
:1009C0008C01F62E5F874E872901DC018C91811105
:1009D00002C0312CBDC0F801ED5AFD4FFF83EE83FC
:1009E00098012F5A3D4F3B832A836081D9018D9115
:1009F0009C910E94D308F8018085882331F0AA8158
:100A0000BB818D919C910E94DA08FF2011F366242E
:100A100057FC6094762C0E9435066B017C014B01DB
:100A20005C01312CF801E75BFD4FFD83EC839801FD
:100A30002A5F3F4F398B288BC8018B5A9D4F9B8B68
:100A40008A8BD801A55BBD4FBD8BAC8B3396F987E4
:100A5000E887285B3D4F3B872A870B979D878C87CC
:100A6000222423948C189D08AE08BF088414950492
:100A7000A604B70408F06CC031106AC00E943506A5
:100A80004B015C01AA81BB818D919C91DC01ED91B0
:100A9000FC910480F581E02D0995892B19F3EA81F9
:100AA000FB8180819181DC01ED91FC910680F781D1
:100AB000E02D09958983EC81FD811082288939898F
:100AC000AA89BB894C91BE016F5F7F4FC8010E940C
:100AD000C2022981EE81FF813081D80112969C915A
:100AE0001297F801E90FF11D23130CC081110AC000
:100AF0001186992329F0EC81FD81208216961C92A3
:100B0000F80107C021879F5FF801928384819817BD
:100B100060F01282A885B9851D921C92EA85FB853A
:100B200011821082AC85BD852C92EC81FD81808183
:100B3000813009F097CFC8010E9493032E853F852D
:100B40002817390709F08ECFAC89BD893C908ACF30
:100B5000F80117821082832D65960FB6F894DEBFD8
:100B60000FBECDBFDF91CF911F910F91FF90EF90FE
:100B7000DF90CF90BF90AF909F908F907F906F90BD
:100B80005F904F903F902F9008951F93CF93DF93E6
:100B9000162FFC01EC5AFD4F20813196EC01CF5A03
:100BA000DD4F621759F0DC01AD5ABD4F8C916817CB
:100BB00029F08081681711F0611105C0608188817A
:100BC00099810E94D308612F88819981DF91CF910B
:100BD0001F910C94D3081F920F920FB60F921124FD
:100BE0002F933F938F939F93AF93BF9380914E0426
:100BF00090914F04A0915004B091510430914D0454
:100C000023E0230F2D3720F40196A11DB11D05C04F
:100C100026E8230F0296A11DB11D20934D04809359
:100C20004E0490934F04A0935004B09351048091CC
:100C3000520490915304A0915404B091550401962C
:100C4000A11DB11D8093520490935304A0935404AA
:100C5000B0935504BF91AF919F918F913F912F9188
:100C60000F900FBE0F901F9018952FB7F8946091BA
:100C70004E0470914F0480915004909151042FBF05
:100C80000895789484B5826084BD84B5816084BD04
:100C900085B5826085BD85B5816085BDEEE6F0E0F5
:100CA000808181608083E1E8F0E010828081826051
:100CB0008083808181608083E0E8F0E080818160D2
:100CC0008083E1EBF0E0808184608083E0EBF0E002
:100CD000808181608083EAE7F0E0808184608083A6
:100CE0008081826080838081816080838081806850
:100CF00080831092C10008958E3008F08E50877066
:100D000020910A0190E4299F90011124822B809365
:100D10007C0080917A00806480937A0080917A00D0
:100D200086FDFCCF809178002091790090E0922B95
:100D30000895FC01818D228D90E0805C9F4F821B85
:100D400091098F7399270895FC01918D828D9817D1
:100D500031F0828DE80FF11D858D90E008958FEFC1
:100D60009FEF0895FC01918D828D981761F0828D1F
:100D7000DF01A80FB11D5D968C91928D9F5F9F73CF
:100D8000928F90E008958FEF9FEF089586E398E0AB
:100D9000892B49F080E090E0892B29F00E943608E9
:100DA00081110C9400000895FC01848DDF01A80FCF
:100DB000B11DA35ABF4F2C91848D90E001968F7383
:100DC0009927848FA689B7892C93A089B1898C91A2
:100DD00080648C93938D848D981306C00288F38968
:100DE000E02D80818F7D80830895CF93DF93EC0188
:100DF000888D8823C9F0EA89FB89808185FD05C03B
:100E0000A889B9898C9186FD0FC00FB607FCF5CF74
:100E1000808185FFF2CFA889B9898C9185FFEDCFBC
:100E2000CE010E94D406E7CFDF91CF910895CF92F3
:100E3000DF92FF920F931F93CF93DF931F92CDB753
:100E4000DEB76C01DC015B969C915B975C968C91A4
:100E50005C97981307C05096ED91FC915197808153
:100E600085FD32C0F601038D10E00F5F1F4F0F7339
:100E70001127F02EF601848DF81211C00FB607FC71
:100E8000F9CFD6015096ED91FC915197808185FF65
:100E9000F1CFC60169830E94D4066981EBCF838DAF
:100EA000E80FF11DE35AFF4F6083D6015B960C9368
:100EB0005B975296ED91FC9153978081806280837D
:100EC00081E058968C930DC0D6015696ED91FC9119
:100ED000579760835096ED91FC9151978081806483
:100EE000808381E090E00F90DF91CF911F910F916F
:100EF000FF90DF90CF900895BF92CF92DF92EF9254
:100F0000FF92CF93DF93EC016A017B01B22EE88957
:100F1000F98982E08083411581EE580761057105EA
:100F2000A1F060E079E08DE390E0A70196010E94D6
:100F3000750B21503109410951095695479537954F
:100F40002795211580E1380798F0E889F989108202
:100F500060E874E88EE190E0A70196010E94750BAD
:100F600021503109410951095695479537952795E3
:100F7000EC85FD853083EE85FF852083188EEC8916
:100F8000FD89B082EA89FB89808180618083EA895A
:100F9000FB89808188608083EA89FB898081806801
:100FA0008083EA89FB8980818F7D8083DF91CF9167
:100FB000FF90EF90DF90CF90BF9008951F920F9217
:100FC0000FB60F9211242F938F939F93EF93FF935C
:100FD000E0916604F09167048081E0916C04F091E7
:100FE0006D0482FD12C0908180916F048F5F8F73BA
:100FF00020917004821751F0E0916F04F0E0EA5AFA
:10100000FB4F958F80936F0401C08081FF91EF911A
:101010009F918F912F910F900FBE0F901F90189559
:101020001F920F920FB60F9211242F933F934F935D
:101030005F936F937F938F939F93AF93BF93EF9340
:10104000FF9386E594E00E94D406FF91EF91BF9153
:10105000AF919F918F917F916F915F914F913F9150
:101060002F910F900FBE0F901F90189586E594E07A
:101070000E94990621E0892B09F420E0822F08952F
:10108000109259041092580488EE93E0A0E0B0E06A
:1010900080935A0490935B04A0935C04B0935D0426
:1010A0008FE691E0909357048093560485EC90E08E
:1010B000909363048093620484EC90E090936504C1
:1010C0008093640480EC90E09093670480936604BE
:1010D00081EC90E0909369048093680482EC90E046
:1010E00090936B0480936A0486EC90E090936D0477
:1010F00080936C0410926F0410927004109271042B
:1011000010927204089508950E9441060E94830877
:101110000E946901C6ECD6E00E9445022097E1F3E7
:101120000E94C606F9CFCF92DF92EF92FF920F9303
:101130001F93CF93DF936C017A01EB01E60EF71E4C
:1011400000E010E0CE15DF0561F06991D601ED9168
:10115000FC910190F081E02DC6010995080F191F3F
:10116000F1CFC801DF91CF911F910F91FF90EF90C8
:10117000DF90CF9008956115710581F0DB010D902E
:101180000020E9F7AD0141505109461B570BDC0126
:10119000ED91FC910280F381E02D099480E090E0D4
:1011A00008950C94BB08DC01ED91FC910190F08155
:1011B000E02D09940F931F93CF93DF93EC016DE023
:1011C0000E94D3088C016AE0CE010E94D308800FF0
:1011D000911FDF91CF911F910F9108958F929F9250
:1011E000AF92BF92CF92DF92EF92FF920F931F9335
:1011F000CF93DF93CDB7DEB7A1970FB6F894DEBFDC
:101200000FBECDBF7C01C42EE52FCB01D22E19A27B
:1012100021E02D1510F02AE0D22E8E010F5D1F4F18
:101220008D2C912CA12CB12C6C2D7E2FA50194011D
:101230000E94750B8C2DD29E80191124015011092A
:101240008A3014F4805D01C0895CF8018083211527
:1012500031054105510521F0C22EE32FCA01E4CF2B
:10126000B801C7010E94BB08A1960FB6F894DEBF73
:101270000FBECDBFDF91CF911F910F91FF90EF90E7
:10128000DF90CF90BF90AF909F908F900895CF92B6
:10129000DF92EF92FF920F931F93CF93DF93EC01B6
:1012A0006A017B012115310579F4E881F98101900A
:1012B000F081E02D642FDF91CF911F910F91FF906E
:1012C000EF90DF90CF9009942A303105E9F477FF51
:1012D0001AC06DE20E94D3088C0144275527BA0139
:1012E0004C195D096E097F092AE0CE010E94EE08C3
:1012F000800F911FDF91CF911F910F91FF90EF9081
:10130000DF90CF9008952AE0B701A601CE01DF91CA
:10131000CF911F910F91FF90EF90DF90CF900C94A1
:10132000EE089A01AB01662757FD6095762F0C9465
:1013300047090F931F93CF93DF93EC010E9435066B
:10134000688779878A879B87E881F9810680F7819A
:10135000E02DCE01099597FF15C00E94350608853E
:1013600019852A853B85601B710B820B930B0C81C1
:101370001D812E813F81601771078207930720F33B
:101380008FEF9FEFDF91CF911F910F910895CF9233
:10139000DF92EF92FF920F931F93CF93DF937C0125
:1013A0006A01EB0100E010E00C151D0549F0C701D2
:1013B0000E94990997FD04C089930F5F1F4FF4CFD6
:1013C000C801DF91CF911F910F91FF90EF90DF90B7
:1013D000CF900895009729F0BC0180E090E00C9434
:1013E0002A0C08955058BB27AA270ED040C131D1EE
:1013F00030F036D120F031F49F3F11F41EF426C1B5
:101400000EF4E095E7FB1CC1E92F42D180F3BA1737
:10141000620773078407950718F071F49EF55AC1A7
:101420000EF4E0950B2EBA2FA02D0B01B9019001FF
:101430000C01CA01A0011124FF27591B99F0593F43
:1014400050F4503E68F11A16F040A22F232F342F8B
:101450004427585FF3CF469537952795A795F040D9
:101460005395C9F77EF41F16BA0B620B730B840BEE
:10147000BAF09150A1F0FF0FBB1F661F771F881FA6
:10148000C2F70EC0BA0F621F731F841F48F48795FE
:1014900077956795B795F7959E3F08F0B3CF9395ED
:1014A000880F08F09927EE0F9795879508950CD02F
:1014B000DEC0D6D040F0CDD030F021F45F3F19F03F
:1014C000BFC0511108C1C2C0E3D098F39923C9F33A
:1014D0005523B1F3951B550BBB27AA27621773073A
:1014E000840738F09F5F5F4F220F331F441FAA1FEE
:1014F000A9F333D00E2E3AF0E0E830D091505040AE
:10150000E695001CCAF729D0FE2F27D0660F771F5B
:10151000881FBB1F261737074807AB07B0E809F03D
:10152000BB0B802DBF01FF2793585F4F2AF09E3FD2
:10153000510568F085C0CFC05F3FECF3983EDCF307
:10154000869577956795B795F7959F5FC9F7880F4B
:10155000911D9695879597F90895E1E0660F771F9D
:10156000881FBB1F621773078407BA0720F0621B2E
:10157000730B840BBA0BEE1F88F7E0950895E8947F
:1015800009C097FB3EF490958095709561957F4FCB
:101590008F4F9F4F9923A9F0F92F96E9BB27939579
:1015A000F695879577956795B795F111F8CFFAF489
:1015B000BB0F11F460FF1BC06F5F7F4F8F4F9F4FBA
:1015C00016C0882311F096E911C0772321F09EE818
:1015D000872F762F05C0662371F096E8862F70E07E
:1015E00060E02AF09A95660F771F881FDAF7880F58
:1015F0009695879597F90895990F0008550FAA0BAE
:10160000E0E8FEEF16161706E807F907C0F0121615
:101610001306E407F50798F0621B730B840B950B18
:1016200039F40A2661F0232B242B252B21F408956D
:101630000A2609F4A140A6958FEF811D811D08950A
:1016400097F99F6780E870E060E008959FEF80EC75
:10165000089500240A941616170618060906089518
:1016600000240A9412161306140605060895092E7E
:101670000394000C11F4882352F0BB0F40F4BF2BED
:1016800011F460FF04C06F5F7F4F8F4F9F4F08952D
:1016900057FD9058440F551F59F05F3F71F0479523
:1016A000880F97FB991F61F09F3F79F08795089508
:1016B000121613061406551FF2CF4695F1DF08C027
:1016C000161617061806991FF1CF86957105610544
:1016D00008940895E894BB2766277727CB0197F9EC
:1016E00008958ADF08F48FEF0895A1E21A2EAA1B4D
:1016F000BB1BFD010DC0AA1FBB1FEE1FFF1FA217C2
:10170000B307E407F50720F0A21BB30BE40BF50BBE
:10171000661F771F881F991F1A9469F76095709547
:10172000809590959B01AC01BD01CF010895052ED8
:1017300097FB1EF400940E94AE0B57FD07D00E9449
:10174000750B07FC03D04EF40C94AE0B50954095EE
:10175000309521953F4F4F4F5F4F0895909580955D
:10176000709561957F4F8F4F9F4F08950E94C70BD3
:10177000A59F900DB49F900DA49F800D911D1124E5
:101780000895EE0FFF1F0590F491E02D0994A29F9C
:10179000B001B39FC001A39F700D811D1124911D45
:1017A000B29F700D811D1124911D08958F929F92FB
:1017B000AF92BF92CF92DF92EF92FF92CF93DF93DF
:1017C000EC01688179818A819B81611571058105B0
:1017D000910521F464E279ED8BE597E02DE133EF9B
:1017E00041E050E00E94970B49015A019B01AC0176
:1017F000A7EAB1E40E94B60B6B017C01ACEEB4EF3A
:10180000A50194010E945C0CC60ED71EE81EF91EAD
:10181000F7FE06C081E0C81AD108E10880E8F80A9E
:10182000C882D982EA82FB82C701B6019F77DF9125
:10183000CF91FF90EF90DF90CF90BF90AF909F90AF
:101840008F9008950E94D60B089586E091E00E9443
:10185000D60B0895609306017093070180930801E9
:10186000909309010895FC0188279927E894219114
:101870002032E9F3293010F02E30C8F32B3241F03A
:101880002D3239F4689404C00E94510C820F911DCE
:10189000219120532A30C0F31EF4909581959F4FDB
:1018A00008957AE0979F902D879F802D910D1124A8
:1018B0000895B7FF0C94B60B0E94B60B821B930BD6
:0618C0000895F894FFCF2B
:1018C6000000F30480000100000001436F6D6D61AC
:1018D6006E6420776974686F7574206174746163CF
:1018E6006865642063616C6C6261636B004172645D
:1018F60075696E6F207265616479005374617274E4
:10190600204C6F6767696E670053746F70204C6F69
:101916006767696E670041726475696E6F206861FA
:1019260073207374617274656421000000000017EF
:0C1936000793089906B206A406F5060007
:00000001FF
